{"abi":[{"type":"constructor","inputs":[{"name":"_musdToken","type":"address","internalType":"address"},{"name":"_borrowerOperations","type":"address","internalType":"address"},{"name":"_marketFactory","type":"address","internalType":"address"}],"stateMutability":"nonpayable"},{"type":"function","name":"autoRepayEnabled","inputs":[{"name":"","type":"address","internalType":"address"}],"outputs":[{"name":"","type":"bool","internalType":"bool"}],"stateMutability":"view"},{"type":"function","name":"autoRepayFromBalance","inputs":[{"name":"_repayAmount","type":"uint256","internalType":"uint256"}],"outputs":[{"name":"remaining","type":"uint256","internalType":"uint256"}],"stateMutability":"nonpayable"},{"type":"function","name":"borrowerOperations","inputs":[],"outputs":[{"name":"","type":"address","internalType":"contract IBorrowerOperations"}],"stateMutability":"view"},{"type":"function","name":"marketFactory","inputs":[],"outputs":[{"name":"","type":"address","internalType":"contract PredictionMarketFactory"}],"stateMutability":"view"},{"type":"function","name":"musdToken","inputs":[],"outputs":[{"name":"","type":"address","internalType":"contract IMUSD"}],"stateMutability":"view"},{"type":"function","name":"owner","inputs":[],"outputs":[{"name":"","type":"address","internalType":"address"}],"stateMutability":"view"},{"type":"function","name":"renounceOwnership","inputs":[],"outputs":[],"stateMutability":"nonpayable"},{"type":"function","name":"repayDebtFromBalance","inputs":[{"name":"_repayAmount","type":"uint256","internalType":"uint256"}],"outputs":[{"name":"remaining","type":"uint256","internalType":"uint256"}],"stateMutability":"nonpayable"},{"type":"function","name":"setAutoRepay","inputs":[{"name":"_enabled","type":"bool","internalType":"bool"}],"outputs":[],"stateMutability":"nonpayable"},{"type":"function","name":"setBorrowerOperations","inputs":[{"name":"_borrowerOperations","type":"address","internalType":"address"}],"outputs":[],"stateMutability":"nonpayable"},{"type":"function","name":"transferOwnership","inputs":[{"name":"newOwner","type":"address","internalType":"address"}],"outputs":[],"stateMutability":"nonpayable"},{"type":"function","name":"updateHints","inputs":[{"name":"_upperHint","type":"address","internalType":"address"},{"name":"_lowerHint","type":"address","internalType":"address"}],"outputs":[],"stateMutability":"nonpayable"},{"type":"function","name":"userLowerHint","inputs":[{"name":"","type":"address","internalType":"address"}],"outputs":[{"name":"","type":"address","internalType":"address"}],"stateMutability":"view"},{"type":"function","name":"userUpperHint","inputs":[{"name":"","type":"address","internalType":"address"}],"outputs":[{"name":"","type":"address","internalType":"address"}],"stateMutability":"view"},{"type":"event","name":"AutoRepayToggled","inputs":[{"name":"user","type":"address","indexed":true,"internalType":"address"},{"name":"enabled","type":"bool","indexed":false,"internalType":"bool"}],"anonymous":false},{"type":"event","name":"DebtRepaid","inputs":[{"name":"user","type":"address","indexed":true,"internalType":"address"},{"name":"amount","type":"uint256","indexed":false,"internalType":"uint256"},{"name":"market","type":"address","indexed":true,"internalType":"address"}],"anonymous":false},{"type":"event","name":"HintsUpdated","inputs":[{"name":"user","type":"address","indexed":true,"internalType":"address"},{"name":"upperHint","type":"address","indexed":false,"internalType":"address"},{"name":"lowerHint","type":"address","indexed":false,"internalType":"address"}],"anonymous":false},{"type":"event","name":"OwnershipTransferred","inputs":[{"name":"previousOwner","type":"address","indexed":true,"internalType":"address"},{"name":"newOwner","type":"address","indexed":true,"internalType":"address"}],"anonymous":false},{"type":"error","name":"OwnableInvalidOwner","inputs":[{"name":"owner","type":"address","internalType":"address"}]},{"type":"error","name":"OwnableUnauthorizedAccount","inputs":[{"name":"account","type":"address","internalType":"address"}]},{"type":"error","name":"ReentrancyGuardReentrantCall","inputs":[]}],"bytecode":{"object":"0x60c06040523480156200001157600080fd5b50604051620012013803806200120183398101604081905262000034916200023c565b33806200005c57604051631e4fbdf760e01b8152600060048201526024015b60405180910390fd5b6200006781620001cf565b5060017f9b779b17422d0df92223018b32b4d1fa46e071723d6817e2486d003becc55f00556001600160a01b038316620000e45760405162461bcd60e51b815260206004820152601460248201527f496e76616c6964204d5553442061646472657373000000000000000000000000604482015260640162000053565b6001600160a01b038216620001475760405162461bcd60e51b815260206004820152602260248201527f496e76616c696420426f72726f7765724f7065726174696f6e73206164647265604482015261737360f01b606482015260840162000053565b6001600160a01b0381166200019f5760405162461bcd60e51b815260206004820152601d60248201527f496e76616c6964204d61726b6574466163746f72792061646472657373000000604482015260640162000053565b6001600160a01b03928316608052600180546001600160a01b031916928416929092179091551660a05262000286565b600080546001600160a01b038381166001600160a01b0319831681178455604051919092169283917f8be0079c531659141344cd1fd0a4f28419497f9722a3daafe3b4186f6b6457e09190a35050565b80516001600160a01b03811681146200023757600080fd5b919050565b6000806000606084860312156200025257600080fd5b6200025d846200021f565b92506200026d602085016200021f565b91506200027d604085016200021f565b90509250925092565b60805160a051610f25620002dc600039600060f40152600081816101bf0152818161038f015281816104800152818161055c015281816108940152818161098001528181610a5c0152610c0e0152610f256000f3fe608060405234801561001057600080fd5b50600436106100ea5760003560e01c80639d78d46b1161008c578063edb7289d11610066578063edb7289d1461022b578063f2fde38b1461023e578063f81ccbc614610251578063fd5740041461027a57600080fd5b80639d78d46b146101ba578063a9489b89146101e1578063bb7a6ad01461020257600080fd5b80634a0cc685116100c85780634a0cc6851461015b578063715018a61461018e57806377553ad4146101965780638da5cb5b146101a957600080fd5b806306ae7095146100ef5780632f510eb1146101335780634473b6aa14610148575b600080fd5b6101167f000000000000000000000000000000000000000000000000000000000000000081565b6040516001600160a01b0390911681526020015b60405180910390f35b610146610141366004610dd9565b61028d565b005b610146610156366004610e09565b610304565b61017e610169366004610dd9565b60026020526000908152604090205460ff1681565b604051901515815260200161012a565b610146610359565b600154610116906001600160a01b031681565b6000546001600160a01b0316610116565b6101167f000000000000000000000000000000000000000000000000000000000000000081565b6101f46101ef366004610e26565b61036d565b60405190815260200161012a565b610116610210366004610dd9565b6003602052600090815260409020546001600160a01b031681565b610146610239366004610e3f565b61075c565b61014661024c366004610dd9565b6107dc565b61011661025f366004610dd9565b6004602052600090815260409020546001600160a01b031681565b6101f4610288366004610e26565b61081a565b610295610cf9565b6001600160a01b0381166102e25760405162461bcd60e51b815260206004820152600f60248201526e496e76616c6964206164647265737360881b60448201526064015b60405180910390fd5b600180546001600160a01b0319166001600160a01b0392909216919091179055565b33600081815260026020908152604091829020805460ff191685151590811790915591519182527fd1963416792937c58d62cac16d196970c2e5cbb4ac06b1d30f252fda794b3dd2910160405180910390a250565b610361610cf9565b61036b6000610d26565b565b6000610377610d76565b6040516370a0823160e01b81523360048201526000907f00000000000000000000000000000000000000000000000000000000000000006001600160a01b0316906370a0823190602401602060405180830381865afa1580156103de573d6000803e3d6000fd5b505050506040513d601f19601f820116820180604052508101906104029190610e72565b9050600081116104415760405162461bcd60e51b815260206004820152600a6024820152694e6f2062616c616e636560b01b60448201526064016102d9565b6000831561044f5783610451565b815b90508181111561045e5750805b6040516323b872dd60e01b8152336004820152306024820152604481018290527f00000000000000000000000000000000000000000000000000000000000000006001600160a01b0316906323b872dd906064016020604051808303816000875af11580156104d1573d6000803e3d6000fd5b505050506040513d601f19601f820116820180604052508101906104f59190610e8b565b6105335760405162461bcd60e51b815260206004820152600f60248201526e151c985b9cd9995c8819985a5b1959608a1b60448201526064016102d9565b60015460405163095ea7b360e01b81526001600160a01b039182166004820152602481018390527f00000000000000000000000000000000000000000000000000000000000000009091169063095ea7b3906044016020604051808303816000875af11580156105a7573d6000803e3d6000fd5b505050506040513d601f19601f820116820180604052508101906105cb9190610e8b565b6106085760405162461bcd60e51b815260206004820152600e60248201526d105c1c1c9bdd994819985a5b195960921b60448201526064016102d9565b336000908152600360205260408120546001600160a01b031661062c576000610646565b336000908152600360205260409020546001600160a01b03165b33600090815260046020526040812054919250906001600160a01b031661066e576000610688565b336000908152600460205260409020546001600160a01b03165b60015460405163dc283bb360e01b8152600481018690526001600160a01b038581166024830152808416604483015292935091169063dc283bb390606401600060405180830381600087803b1580156106e057600080fd5b505af11580156106f4573d6000803e3d6000fd5b5050604051858152600092503391507f4d58a260006fc35edef36c450fe9d007637ebdae98af29a4fbac24dab6580b059060200160405180910390a361073a8385610ea8565b9450505050506107576001600080516020610ed083398151915255565b919050565b33600081815260036020908152604080832080546001600160a01b038881166001600160a01b031992831681179093556004855294839020805495881695909116851790558151908152918201929092527fc79100641489ccfe2b600206a65a4011b9f3f5f0eee757e5e84919c5b63d8c10910160405180910390a25050565b6107e4610cf9565b6001600160a01b03811661080e57604051631e4fbdf760e01b8152600060048201526024016102d9565b61081781610d26565b50565b6000610824610d76565b3360009081526002602052604090205460ff1661087c5760405162461bcd60e51b8152602060048201526016602482015275105d5d1bcb5c995c185e481b9bdd08195b98589b195960521b60448201526064016102d9565b6040516370a0823160e01b81523360048201526000907f00000000000000000000000000000000000000000000000000000000000000006001600160a01b0316906370a0823190602401602060405180830381865afa1580156108e3573d6000803e3d6000fd5b505050506040513d601f19601f820116820180604052508101906109079190610e72565b9050600081116109465760405162461bcd60e51b815260206004820152600a6024820152694e6f2062616c616e636560b01b60448201526064016102d9565b8260008190036109535750805b8181111561095e5750805b6040516323b872dd60e01b8152336004820152306024820152604481018290527f00000000000000000000000000000000000000000000000000000000000000006001600160a01b0316906323b872dd906064016020604051808303816000875af11580156109d1573d6000803e3d6000fd5b505050506040513d601f19601f820116820180604052508101906109f59190610e8b565b610a335760405162461bcd60e51b815260206004820152600f60248201526e151c985b9cd9995c8819985a5b1959608a1b60448201526064016102d9565b60015460405163095ea7b360e01b81526001600160a01b039182166004820152602481018390527f00000000000000000000000000000000000000000000000000000000000000009091169063095ea7b3906044016020604051808303816000875af1158015610aa7573d6000803e3d6000fd5b505050506040513d601f19601f82011682018060405250810190610acb9190610e8b565b610b085760405162461bcd60e51b815260206004820152600e60248201526d105c1c1c9bdd994819985a5b195960921b60448201526064016102d9565b336000908152600360205260408120546001600160a01b0316610b2b5733610b45565b336000908152600360205260409020546001600160a01b03165b33600090815260046020526040812054919250906001600160a01b0316610b6d576000610b87565b336000908152600460205260409020546001600160a01b03165b60015460405163dc283bb360e01b8152600481018690526001600160a01b038581166024830152808416604483015292935091169063dc283bb390606401600060405180830381600087803b158015610bdf57600080fd5b505af1158015610bf3573d6000803e3d6000fd5b50506040516370a0823160e01b8152336004820152600092507f00000000000000000000000000000000000000000000000000000000000000006001600160a01b031691506370a0823190602401602060405180830381865afa158015610c5e573d6000803e3d6000fd5b505050506040513d601f19601f82011682018060405250810190610c829190610e72565b9050600081861115610c9f57610c988287610ea8565b9050610ca3565b5060005b60405181815260009033907f4d58a260006fc35edef36c450fe9d007637ebdae98af29a4fbac24dab6580b059060200160405180910390a3509450505050506107576001600080516020610ed083398151915255565b6000546001600160a01b0316331461036b5760405163118cdaa760e01b81523360048201526024016102d9565b600080546001600160a01b038381166001600160a01b0319831681178455604051919092169283917f8be0079c531659141344cd1fd0a4f28419497f9722a3daafe3b4186f6b6457e09190a35050565b610d7e610d92565b6002600080516020610ed083398151915255565b600080516020610ed08339815191525460020361036b57604051633ee5aeb560e01b815260040160405180910390fd5b80356001600160a01b038116811461075757600080fd5b600060208284031215610deb57600080fd5b610df482610dc2565b9392505050565b801515811461081757600080fd5b600060208284031215610e1b57600080fd5b8135610df481610dfb565b600060208284031215610e3857600080fd5b5035919050565b60008060408385031215610e5257600080fd5b610e5b83610dc2565b9150610e6960208401610dc2565b90509250929050565b600060208284031215610e8457600080fd5b5051919050565b600060208284031215610e9d57600080fd5b8151610df481610dfb565b81810381811115610ec957634e487b7160e01b600052601160045260246000fd5b9291505056fe9b779b17422d0df92223018b32b4d1fa46e071723d6817e2486d003becc55f00a2646970667358221220d62e957325185820ef0c4c9db95203adca14f48883336300956c3235f1fbbaaa64736f6c63430008180033","linkReferences":{}},"methodIdentifiers":{"autoRepayEnabled(address)":"4a0cc685","autoRepayFromBalance(uint256)":"fd574004","borrowerOperations()":"77553ad4","marketFactory()":"06ae7095","musdToken()":"9d78d46b","owner()":"8da5cb5b","renounceOwnership()":"715018a6","repayDebtFromBalance(uint256)":"a9489b89","setAutoRepay(bool)":"4473b6aa","setBorrowerOperations(address)":"2f510eb1","transferOwnership(address)":"f2fde38b","updateHints(address,address)":"edb7289d","userLowerHint(address)":"f81ccbc6","userUpperHint(address)":"bb7a6ad0"},"id":32}