{"abi":[{"type":"constructor","inputs":[{"name":"_musdToken","type":"address","internalType":"address"}],"stateMutability":"nonpayable"},{"type":"function","name":"createMarket","inputs":[{"name":"_threshold","type":"uint256","internalType":"uint256"},{"name":"_expirationTime","type":"uint256","internalType":"uint256"},{"name":"_initialLiquidity","type":"uint256","internalType":"uint256"}],"outputs":[{"name":"market","type":"address","internalType":"address"}],"stateMutability":"nonpayable"},{"type":"function","name":"creatorMarkets","inputs":[{"name":"","type":"address","internalType":"address"},{"name":"","type":"uint256","internalType":"uint256"}],"outputs":[{"name":"","type":"address","internalType":"address"}],"stateMutability":"view"},{"type":"function","name":"getAllMarkets","inputs":[],"outputs":[{"name":"","type":"address[]","internalType":"address[]"}],"stateMutability":"view"},{"type":"function","name":"getMarket","inputs":[{"name":"_index","type":"uint256","internalType":"uint256"}],"outputs":[{"name":"","type":"address","internalType":"address"}],"stateMutability":"view"},{"type":"function","name":"getMarketCount","inputs":[],"outputs":[{"name":"","type":"uint256","internalType":"uint256"}],"stateMutability":"view"},{"type":"function","name":"getMarketsByCreator","inputs":[{"name":"_creator","type":"address","internalType":"address"}],"outputs":[{"name":"","type":"address[]","internalType":"address[]"}],"stateMutability":"view"},{"type":"function","name":"isMarket","inputs":[{"name":"","type":"address","internalType":"address"}],"outputs":[{"name":"","type":"bool","internalType":"bool"}],"stateMutability":"view"},{"type":"function","name":"markets","inputs":[{"name":"","type":"uint256","internalType":"uint256"}],"outputs":[{"name":"","type":"address","internalType":"address"}],"stateMutability":"view"},{"type":"function","name":"musdToken","inputs":[],"outputs":[{"name":"","type":"address","internalType":"contract IMUSD"}],"stateMutability":"view"},{"type":"function","name":"owner","inputs":[],"outputs":[{"name":"","type":"address","internalType":"address"}],"stateMutability":"view"},{"type":"function","name":"renounceOwnership","inputs":[],"outputs":[],"stateMutability":"nonpayable"},{"type":"function","name":"transferOwnership","inputs":[{"name":"newOwner","type":"address","internalType":"address"}],"outputs":[],"stateMutability":"nonpayable"},{"type":"event","name":"MarketCreated","inputs":[{"name":"market","type":"address","indexed":true,"internalType":"address"},{"name":"creator","type":"address","indexed":true,"internalType":"address"},{"name":"threshold","type":"uint256","indexed":false,"internalType":"uint256"},{"name":"expirationTime","type":"uint256","indexed":false,"internalType":"uint256"},{"name":"initialLiquidity","type":"uint256","indexed":false,"internalType":"uint256"},{"name":"marketIndex","type":"uint256","indexed":true,"internalType":"uint256"}],"anonymous":false},{"type":"event","name":"OwnershipTransferred","inputs":[{"name":"previousOwner","type":"address","indexed":true,"internalType":"address"},{"name":"newOwner","type":"address","indexed":true,"internalType":"address"}],"anonymous":false},{"type":"error","name":"OwnableInvalidOwner","inputs":[{"name":"owner","type":"address","internalType":"address"}]},{"type":"error","name":"OwnableUnauthorizedAccount","inputs":[{"name":"account","type":"address","internalType":"address"}]}],"bytecode":{"object":"0x60a060405234801561001057600080fd5b5060405161245338038061245383398101604081905261002f91610117565b338061005657604051631e4fbdf760e01b8152600060048201526024015b60405180910390fd5b61005f816100c7565b506001600160a01b0381166100b65760405162461bcd60e51b815260206004820152601460248201527f496e76616c6964204d5553442061646472657373000000000000000000000000604482015260640161004d565b6001600160a01b0316608052610147565b600080546001600160a01b038381166001600160a01b0319831681178455604051919092169283917f8be0079c531659141344cd1fd0a4f28419497f9722a3daafe3b4186f6b6457e09190a35050565b60006020828403121561012957600080fd5b81516001600160a01b038116811461014057600080fd5b9392505050565b6080516122dc61017760003960008181610157015281816103440152818161040001526104a601526122dc6000f3fe60806040523480156200001157600080fd5b5060043610620000c35760003560e01c8063b1283e77116200007a578063b1283e771462000192578063ba1f519514620001a9578063e99c80bd14620001c0578063eb44fdd314620001d7578063f2fde38b14620001ee578063fd69f3c2146200020557600080fd5b8063059a338414620000c85780636ec934da14620000fc578063715018a614620001335780638da5cb5b146200013f5780639d78d46b1462000151578063b0772d0b1462000179575b600080fd5b620000df620000d9366004620008f4565b62000217565b6040516001600160a01b0390911681526020015b60405180910390f35b620001226200010d3660046200093e565b60026020526000908152604090205460ff1681565b6040519015158152602001620000f3565b6200013d6200064e565b005b6000546001600160a01b0316620000df565b620000df7f000000000000000000000000000000000000000000000000000000000000000081565b6200018362000666565b604051620000f3919062000963565b620000df620001a3366004620009b2565b620006ca565b620000df620001ba366004620009cc565b620006f5565b62000183620001d13660046200093e565b6200072e565b620000df620001e8366004620009b2565b620007a6565b6200013d620001ff3660046200093e565b62000823565b600154604051908152602001620000f3565b6000808411620002665760405162461bcd60e51b815260206004820152601560248201527405468726573686f6c64206d757374206265203e203605c1b60448201526064015b60405180910390fd5b428311620002b75760405162461bcd60e51b815260206004820152601760248201527f496e76616c69642065787069726174696f6e2074696d6500000000000000000060448201526064016200025d565b60008211620003095760405162461bcd60e51b815260206004820152601d60248201527f496e697469616c206c6971756964697479206d757374206265203e203000000060448201526064016200025d565b60006200031f85670de0b6b3a764000062000a0f565b6040516323b872dd60e01b8152336004820152306024820152604481018590529091507f00000000000000000000000000000000000000000000000000000000000000006001600160a01b0316906323b872dd906064016020604051808303816000875af115801562000396573d6000803e3d6000fd5b505050506040513d601f19601f82011682018060405250810190620003bc919062000a2f565b620003fc5760405162461bcd60e51b815260206004820152600f60248201526e151c985b9cd9995c8819985a5b1959608a1b60448201526064016200025d565b60007f0000000000000000000000000000000000000000000000000000000000000000338387876040516200043190620008e6565b6001600160a01b03958616815294909316602085015260408401919091526060830152608082015260a001604051809103906000f08015801562000479573d6000803e3d6000fd5b5060405163a9059cbb60e01b81526001600160a01b038083166004830152602482018790529194508492507f00000000000000000000000000000000000000000000000000000000000000009091169063a9059cbb906044016020604051808303816000875af1158015620004f2573d6000803e3d6000fd5b505050506040513d601f19601f8201168201806040525081019062000518919062000a2f565b620005665760405162461bcd60e51b815260206004820152601960248201527f5472616e7366657220746f206d61726b6574206661696c65640000000000000060448201526064016200025d565b6001805480820182557fb10e2d527612073b26eecdfd717e6a320cf44b4afac2b0732d9fcbe2b7fa0cf60180546001600160a01b0386166001600160a01b031991821681179092556000828152600260209081526040808320805460ff19168717905533835260038252822080548087018255908352912001805490911690911790558054620005f7919062000a53565b604080518481526020810188905290810186905233906001600160a01b038616907fee1c7153927e7f3acd787e86194fd188fd5878f31133515d5a513f0fd220b4e99060600160405180910390a450509392505050565b6200065862000867565b62000664600062000896565b565b60606001805480602002602001604051908101604052809291908181526020018280548015620006c057602002820191906000526020600020905b81546001600160a01b03168152600190910190602001808311620006a1575b5050505050905090565b60018181548110620006db57600080fd5b6000918252602090912001546001600160a01b0316905081565b600360205281600052604060002081815481106200071257600080fd5b6000918252602090912001546001600160a01b03169150829050565b6001600160a01b0381166000908152600360209081526040918290208054835181840281018401909452808452606093928301828280156200079a57602002820191906000526020600020905b81546001600160a01b031681526001909101906020018083116200077b575b50505050509050919050565b6001546000908210620007f25760405162461bcd60e51b8152602060048201526013602482015272496e646578206f7574206f6620626f756e647360681b60448201526064016200025d565b6001828154811062000808576200080862000a69565b6000918252602090912001546001600160a01b031692915050565b6200082d62000867565b6001600160a01b0381166200085957604051631e4fbdf760e01b8152600060048201526024016200025d565b620008648162000896565b50565b6000546001600160a01b03163314620006645760405163118cdaa760e01b81523360048201526024016200025d565b600080546001600160a01b038381166001600160a01b0319831681178455604051919092169283917f8be0079c531659141344cd1fd0a4f28419497f9722a3daafe3b4186f6b6457e09190a35050565b6118278062000a8083390190565b6000806000606084860312156200090a57600080fd5b505081359360208301359350604090920135919050565b80356001600160a01b03811681146200093957600080fd5b919050565b6000602082840312156200095157600080fd5b6200095c8262000921565b9392505050565b6020808252825182820181905260009190848201906040850190845b81811015620009a65783516001600160a01b0316835292840192918401916001016200097f565b50909695505050505050565b600060208284031215620009c557600080fd5b5035919050565b60008060408385031215620009e057600080fd5b620009eb8362000921565b946020939093013593505050565b634e487b7160e01b600052601160045260246000fd5b808202811582820484141762000a295762000a29620009f9565b92915050565b60006020828403121562000a4257600080fd5b815180151581146200095c57600080fd5b8181038181111562000a295762000a29620009f9565b634e487b7160e01b600052603260045260246000fdfe60a06040523480156200001157600080fd5b5060405162001827380380620018278339810160408190526200003491620002f0565b8360017f9b779b17422d0df92223018b32b4d1fa46e071723d6817e2486d003becc55f00556001600160a01b0381166200008957604051631e4fbdf760e01b8152600060048201526024015b60405180910390fd5b620000948162000283565b506001600160a01b038516620000ed5760405162461bcd60e51b815260206004820152601460248201527f496e76616c6964204d5553442061646472657373000000000000000000000000604482015260640162000080565b600083116200013f5760405162461bcd60e51b815260206004820152601560248201527f5468726573686f6c64206d757374206265203e20300000000000000000000000604482015260640162000080565b428211620001905760405162461bcd60e51b815260206004820152601760248201527f496e76616c69642065787069726174696f6e2074696d65000000000000000000604482015260640162000080565b60008111620001e25760405162461bcd60e51b815260206004820152601d60248201527f496e697469616c206c6971756964697479206d757374206265203e2030000000604482015260640162000080565b6001600160a01b0385811660809081526040805160e0810182528681526020810186905260009181018290526060810182905291820181905291861660a082018190524260c0909201829052600186905560028581556003805461ffff191690556004849055600580546001600160a01b0319169092179091556006919091556200026e908362000343565b60078190556008555062000366945050505050565b600080546001600160a01b038381166001600160a01b0319831681178455604051919092169283917f8be0079c531659141344cd1fd0a4f28419497f9722a3daafe3b4186f6b6457e09190a35050565b80516001600160a01b0381168114620002eb57600080fd5b919050565b600080600080600060a086880312156200030957600080fd5b6200031486620002d3565b94506200032460208701620002d3565b6040870151606088015160809098015196999198509695945092505050565b6000826200036157634e487b7160e01b600052601260045260246000fd5b500490565b6080516114906200039760003960008181610269015281816105af015281816107f70152610ebc01526114906000f3fe608060405234801561001057600080fd5b50600436106101215760003560e01c8063818fa941116100ad578063b945b52711610071578063b945b5271461028b578063bad60569146102d5578063bf333f2c146102e8578063f2fde38b146102f0578063fb3c967f1461030357600080fd5b8063818fa941146102035780638da5cb5b146102235780638fb182aa146102485780639c0e1608146102515780639d78d46b1461026457600080fd5b80635b7c2dad116100f45780635b7c2dad1461018a5780635e09e7af146101d55780635f81a57c146101dd57806368b89a2c146101e6578063715018a6146101f957600080fd5b8063432c4721146101265780634d96264c1461014c57806353aaf54c1461016157806356bc793e1461016a575b600080fd5b6101396101343660046111c5565b610316565b6040519081526020015b60405180910390f35b6101546106be565b6040516101439190611229565b61013960085481565b61013961017836600461128b565b600a6020526000908152604090205481565b6101c061019836600461128b565b6001600160a01b0316600090815260096020908152604080832054600a909252909120549091565b60408051928352602083019190915201610143565b610139600181565b610139600b5481565b6101396101f43660046111c5565b610750565b6102016109e4565b005b61013961021136600461128b565b60096020526000908152604090205481565b6000546001600160a01b03165b6040516001600160a01b039091168152602001610143565b61013960075481565b61020161025f3660046112b4565b6109f8565b6102307f000000000000000000000000000000000000000000000000000000000000000081565b6001546002546003546004546005546006546102c295949360ff80821694610100909204169290916001600160a01b039091169087565b60405161014397969594939291906112ea565b6101396102e3366004611336565b610b79565b610139603281565b6102016102fe36600461128b565b610bfe565b6101396103113660046111c5565b610c3c565b6000610320610fa4565b600060035460ff166002811115610339576103396111f1565b1461035f5760405162461bcd60e51b815260040161035690611353565b60405180910390fd5b600082116103a45760405162461bcd60e51b81526020600482015260126024820152710536861726573206d757374206265203e20360741b6044820152606401610356565b60008084156104a357336000908152600960205260409020548411156104065760405162461bcd60e51b8152602060048201526017602482015276496e73756666696369656e74205965732073686172657360481b6044820152606401610356565b3360009081526009602052604081208054869290610425908490611395565b9250508190555061043b84600754600854610fc0565b915061044a60326127106113a8565b6104556032846113bb565b61045f91906113d2565b905061046b8183611395565b9250836007600082825461047f9190611395565b9250508190555081600860008282546104989190611395565b909155506105939050565b336000908152600a60205260409020548411156104fb5760405162461bcd60e51b8152602060048201526016602482015275496e73756666696369656e74204e6f2073686172657360501b6044820152606401610356565b336000908152600a60205260408120805486929061051a908490611395565b9250508190555061053084600854600754610fc0565b915061053f60326127106113a8565b61054a6032846113bb565b61055491906113d2565b90506105608183611395565b925083600860008282546105749190611395565b92505081905550816007600082825461058d9190611395565b90915550505b60405163a9059cbb60e01b8152336004820152602481018490527f00000000000000000000000000000000000000000000000000000000000000006001600160a01b03169063a9059cbb906044016020604051808303816000875af1158015610600573d6000803e3d6000fd5b505050506040513d601f19601f8201168201806040525081019061062491906113f4565b6106405760405162461bcd60e51b815260040161035690611411565b82600b600082825461065291906113a8565b909155505060408051858152602081018590529081018290528515159033907fad0c4d9105a7bc1b55da63e9d1b141c787078184dc6d498b7d65585cce22bc9c906060015b60405180910390a350506106b8600160008051602061143b83398151915255565b92915050565b6106c6611169565b6040805160e081018252600180548252600280546020840152600354929391929184019160ff16908111156106fd576106fd6111f1565b600281111561070e5761070e6111f1565b81526002820154610100900460ff1660208201526003820154604082015260048201546001600160a01b03166060820152600590910154608090910152919050565b600061075a610fa4565b600060035460ff166002811115610773576107736111f1565b146107905760405162461bcd60e51b815260040161035690611353565b600082116107d55760405162461bcd60e51b81526020600482015260126024820152710416d6f756e74206d757374206265203e20360741b6044820152606401610356565b6040516323b872dd60e01b8152336004820152306024820152604481018390527f00000000000000000000000000000000000000000000000000000000000000006001600160a01b0316906323b872dd906064016020604051808303816000875af1158015610848573d6000803e3d6000fd5b505050506040513d601f19601f8201168201806040525081019061086c91906113f4565b6108885760405162461bcd60e51b815260040161035690611411565b60006127106108986032856113bb565b6108a291906113d2565b905060006108b08285611395565b90508415610923576108c781600854600754611082565b925080600860008282546108db91906113a8565b9250508190555082600760008282546108f491906113a8565b909155505033600090815260096020526040812080548592906109189084906113a8565b909155506109899050565b61093281600754600854611082565b9250806007600082825461094691906113a8565b92505081905550826008600082825461095f91906113a8565b9091555050336000908152600a6020526040812080548592906109839084906113a8565b90915550505b83600b600082825461099b91906113a8565b909155505060408051858152602081018590529081018390528515159033907fc0977828da8ef9af28e2250e77e7705aff232413ebd7bf66bc6bac23afea0bdb90606001610697565b6109ec6110bc565b6109f660006110e9565b565b610a006110bc565b600060035460ff166002811115610a1957610a196111f1565b14610a365760405162461bcd60e51b815260040161035690611353565b600254421015610a7d5760405162461bcd60e51b815260206004820152601260248201527113585c9ad95d081b9bdd08195e1c1a5c995960721b6044820152606401610356565b60ff81161580610a9057508060ff166001145b610ace5760405162461bcd60e51b815260206004820152600f60248201526e496e76616c6964206f7574636f6d6560881b6044820152606401610356565b60008211610b125760405162461bcd60e51b815260206004820152601160248201527005072696365206d757374206265203e203607c1b6044820152606401610356565b6003805460ff8316610100810261ffff19909216919091176001179091556004839055604080519182526020820184905242908201527fc289d6e92f28a0dc6e03931c8263264481746a5fead96f8c657dcd764746a0eb9060600160405180910390a15050565b600080600854600754610b8c91906113a8565b905080600003610ba657506706f05b59d3b2000092915050565b8215610bd45780600854670de0b6b3a7640000610bc391906113bb565b610bcd91906113d2565b9150610bf8565b80600754670de0b6b3a7640000610beb91906113bb565b610bf591906113d2565b91505b50919050565b610c066110bc565b6001600160a01b038116610c3057604051631e4fbdf760e01b815260006004820152602401610356565b610c39816110e9565b50565b6000610c46610fa4565b600160035460ff166002811115610c5f57610c5f6111f1565b14610ca25760405162461bcd60e51b815260206004820152601360248201527213585c9ad95d081b9bdd081c995cdbdb1d9959606a1b6044820152606401610356565b60008211610ce75760405162461bcd60e51b81526020600482015260126024820152710536861726573206d757374206265203e20360741b6044820152606401610356565b6000838015610d01575060035460ff610100909104166001145b80610d1d575083158015610d1d5750600354610100900460ff16155b905080610d655760405162461bcd60e51b81526020600482015260166024820152752737ba1030903bb4b73734b733903837b9b4ba34b7b760511b6044820152606401610356565b8315610e075733600090815260096020526040902054831115610dc45760405162461bcd60e51b8152602060048201526017602482015276496e73756666696369656e74205965732073686172657360481b6044820152606401610356565b3360009081526009602052604081208054859290610de3908490611395565b925050819055508260076000828254610dfc9190611395565b90915550610e9d9050565b336000908152600a6020526040902054831115610e5f5760405162461bcd60e51b8152602060048201526016602482015275496e73756666696369656e74204e6f2073686172657360501b6044820152606401610356565b336000908152600a602052604081208054859290610e7e908490611395565b925050819055508260086000828254610e979190611395565b90915550505b60405163a9059cbb60e01b8152336004820152602481018490528392507f00000000000000000000000000000000000000000000000000000000000000006001600160a01b03169063a9059cbb906044016020604051808303816000875af1158015610f0d573d6000803e3d6000fd5b505050506040513d601f19601f82011682018060405250810190610f3191906113f4565b610f4d5760405162461bcd60e51b815260040161035690611411565b60408051848152602081018490528515159133917f11a5448f24368488f020eb1b349465b1fe0f035f9c9e3bc2046f51f7803c11c0910160405180910390a3506106b8600160008051602061143b83398151915255565b610fac611139565b600260008051602061143b83398151915255565b60008083118015610fd15750600082115b61100c5760405162461bcd60e51b815260206004820152600c60248201526b4e6f206c697175696469747960a01b6044820152606401610356565b8284106110525760405162461bcd60e51b8152602060048201526014602482015273496e73756666696369656e74207265736572766560601b6044820152606401610356565b600061105e83866113bb565b9050600061106c8686611395565b905061107881836113d2565b9695505050505050565b600082158061108f575081155b1561109b5750826110b5565b60006110a783866113bb565b9050600061106c86866113a8565b9392505050565b6000546001600160a01b031633146109f65760405163118cdaa760e01b8152336004820152602401610356565b600080546001600160a01b038381166001600160a01b0319831681178455604051919092169283917f8be0079c531659141344cd1fd0a4f28419497f9722a3daafe3b4186f6b6457e09190a35050565b60008051602061143b833981519152546002036109f657604051633ee5aeb560e01b815260040160405180910390fd5b6040518060e00160405280600081526020016000815260200160006002811115611195576111956111f1565b8152600060208201819052604082018190526060820181905260809091015290565b8015158114610c3957600080fd5b600080604083850312156111d857600080fd5b82356111e3816111b7565b946020939093013593505050565b634e487b7160e01b600052602160045260246000fd5b6003811061122557634e487b7160e01b600052602160045260246000fd5b9052565b600060e082019050825182526020830151602083015260408301516112516040840182611207565b5060ff60608401511660608301526080830151608083015260018060a01b0360a08401511660a083015260c083015160c083015292915050565b60006020828403121561129d57600080fd5b81356001600160a01b03811681146110b557600080fd5b600080604083850312156112c757600080fd5b82359150602083013560ff811681146112df57600080fd5b809150509250929050565b8781526020810187905260e081016113056040830188611207565b60ff95909516606082015260808101939093526001600160a01b039190911660a083015260c0909101529392505050565b60006020828403121561134857600080fd5b81356110b5816111b7565b6020808252601290820152714d61726b6574206e6f742070656e64696e6760701b604082015260600190565b634e487b7160e01b600052601160045260246000fd5b818103818111156106b8576106b861137f565b808201808211156106b8576106b861137f565b80820281158282048414176106b8576106b861137f565b6000826113ef57634e487b7160e01b600052601260045260246000fd5b500490565b60006020828403121561140657600080fd5b81516110b5816111b7565b6020808252600f908201526e151c985b9cd9995c8819985a5b1959608a1b60408201526060019056fe9b779b17422d0df92223018b32b4d1fa46e071723d6817e2486d003becc55f00a264697066735822122066905a5affa3d30efb4a612326cf89384be6d95ccf83c6eeb7d03ad6d323b8bd64736f6c63430008180033a26469706673582212200d5b962eff66a8228c3d7f7c80fe06d2501f43cbdd13cc20af0e48a0799afebc64736f6c63430008180033","linkReferences":{}},"methodIdentifiers":{"createMarket(uint256,uint256,uint256)":"059a3384","creatorMarkets(address,uint256)":"ba1f5195","getAllMarkets()":"b0772d0b","getMarket(uint256)":"eb44fdd3","getMarketCount()":"fd69f3c2","getMarketsByCreator(address)":"e99c80bd","isMarket(address)":"6ec934da","markets(uint256)":"b1283e77","musdToken()":"9d78d46b","owner()":"8da5cb5b","renounceOwnership()":"715018a6","transferOwnership(address)":"f2fde38b"},"id":34}